{
  "contractName": "nUSDStablecoin",
  "abi": [
    {
      "inputs": [
        {
          "internalType": "address",
          "name": "_priceFeedAddress",
          "type": "address"
        }
      ],
      "stateMutability": "nonpayable",
      "type": "constructor"
    },
    {
      "inputs": [
        {
          "internalType": "address",
          "name": "",
          "type": "address"
        }
      ],
      "name": "balances",
      "outputs": [
        {
          "internalType": "uint256",
          "name": "",
          "type": "uint256"
        }
      ],
      "stateMutability": "view",
      "type": "function",
      "constant": true
    },
    {
      "inputs": [],
      "name": "decimals",
      "outputs": [
        {
          "internalType": "uint8",
          "name": "",
          "type": "uint8"
        }
      ],
      "stateMutability": "view",
      "type": "function",
      "constant": true
    },
    {
      "inputs": [],
      "name": "name",
      "outputs": [
        {
          "internalType": "string",
          "name": "",
          "type": "string"
        }
      ],
      "stateMutability": "view",
      "type": "function",
      "constant": true
    },
    {
      "inputs": [],
      "name": "symbol",
      "outputs": [
        {
          "internalType": "string",
          "name": "",
          "type": "string"
        }
      ],
      "stateMutability": "view",
      "type": "function",
      "constant": true
    },
    {
      "inputs": [],
      "name": "totalSupply",
      "outputs": [
        {
          "internalType": "uint256",
          "name": "",
          "type": "uint256"
        }
      ],
      "stateMutability": "view",
      "type": "function",
      "constant": true
    },
    {
      "inputs": [],
      "name": "deposit",
      "outputs": [],
      "stateMutability": "payable",
      "type": "function",
      "payable": true
    },
    {
      "inputs": [],
      "name": "redeem",
      "outputs": [],
      "stateMutability": "nonpayable",
      "type": "function"
    },
    {
      "inputs": [],
      "name": "getPrice",
      "outputs": [
        {
          "internalType": "int256",
          "name": "",
          "type": "int256"
        }
      ],
      "stateMutability": "view",
      "type": "function",
      "constant": true
    }
  ],
  "bytecode": "0x60806040526040518060400160405280600f81526020017f6e55534420537461626c65636f696e0000000000000000000000000000000000815250600090816200004a9190620003a3565b506040518060400160405280600481526020017f6e5553440000000000000000000000000000000000000000000000000000000081525060019081620000919190620003a3565b506012600260006101000a81548160ff021916908360ff160217905550348015620000bb57600080fd5b506040516200122d3803806200122d8339818101604052810190620000e19190620004f4565b80600560006101000a81548173ffffffffffffffffffffffffffffffffffffffff021916908373ffffffffffffffffffffffffffffffffffffffff1602179055505062000526565b600081519050919050565b7f4e487b7100000000000000000000000000000000000000000000000000000000600052604160045260246000fd5b7f4e487b7100000000000000000000000000000000000000000000000000000000600052602260045260246000fd5b60006002820490506001821680620001ab57607f821691505b602082108103620001c157620001c062000163565b5b50919050565b60008190508160005260206000209050919050565b60006020601f8301049050919050565b600082821b905092915050565b6000600883026200022b7fffffffffffffffffffffffffffffffffffffffffffffffffffffffffffffffff82620001ec565b620002378683620001ec565b95508019841693508086168417925050509392505050565b6000819050919050565b6000819050919050565b6000620002846200027e62000278846200024f565b62000259565b6200024f565b9050919050565b6000819050919050565b620002a08362000263565b620002b8620002af826200028b565b848454620001f9565b825550505050565b600090565b620002cf620002c0565b620002dc81848462000295565b505050565b5b818110156200030457620002f8600082620002c5565b600181019050620002e2565b5050565b601f82111562000353576200031d81620001c7565b6200032884620001dc565b8101602085101562000338578190505b620003506200034785620001dc565b830182620002e1565b50505b505050565b600082821c905092915050565b6000620003786000198460080262000358565b1980831691505092915050565b600062000393838362000365565b9150826002028217905092915050565b620003ae8262000129565b67ffffffffffffffff811115620003ca57620003c962000134565b5b620003d6825462000192565b620003e382828562000308565b600060209050601f8311600181146200041b576000841562000406578287015190505b62000412858262000385565b86555062000482565b601f1984166200042b86620001c7565b60005b8281101562000455578489015182556001820191506020850194506020810190506200042e565b8683101562000475578489015162000471601f89168262000365565b8355505b6001600288020188555050505b505050505050565b600080fd5b600073ffffffffffffffffffffffffffffffffffffffff82169050919050565b6000620004bc826200048f565b9050919050565b620004ce81620004af565b8114620004da57600080fd5b50565b600081519050620004ee81620004c3565b92915050565b6000602082840312156200050d576200050c6200048a565b5b60006200051d84828501620004dd565b91505092915050565b610cf780620005366000396000f3fe60806040526004361061007b5760003560e01c806395d89b411161004e57806395d89b411461013e57806398d5fdca14610169578063be040fb014610194578063d0e30db0146101ab5761007b565b806306fdde031461008057806318160ddd146100ab57806327e235e3146100d6578063313ce56714610113575b600080fd5b34801561008c57600080fd5b506100956101b5565b6040516100a291906106c6565b60405180910390f35b3480156100b757600080fd5b506100c0610243565b6040516100cd9190610701565b60405180910390f35b3480156100e257600080fd5b506100fd60048036038101906100f8919061077f565b610249565b60405161010a9190610701565b60405180910390f35b34801561011f57600080fd5b50610128610261565b60405161013591906107c8565b60405180910390f35b34801561014a57600080fd5b50610153610274565b60405161016091906106c6565b60405180910390f35b34801561017557600080fd5b5061017e610302565b60405161018b91906107fc565b60405180910390f35b3480156101a057600080fd5b506101a96103a3565b005b6101b3610527565b005b600080546101c290610846565b80601f01602080910402602001604051908101604052809291908181526020018280546101ee90610846565b801561023b5780601f106102105761010080835404028352916020019161023b565b820191906000526020600020905b81548152906001019060200180831161021e57829003601f168201915b505050505081565b60035481565b60046020528060005260406000206000915090505481565b600260009054906101000a900460ff1681565b6001805461028190610846565b80601f01602080910402602001604051908101604052809291908181526020018280546102ad90610846565b80156102fa5780601f106102cf576101008083540402835291602001916102fa565b820191906000526020600020905b8154815290600101906020018083116102dd57829003601f168201915b505050505081565b600080600560009054906101000a900473ffffffffffffffffffffffffffffffffffffffff1673ffffffffffffffffffffffffffffffffffffffff1663feaf968c6040518163ffffffff1660e01b815260040160a060405180830381865afa158015610372573d6000803e3d6000fd5b505050506040513d601f19601f820116820180604052508101906103969190610911565b5050509150508091505090565b6000600460003373ffffffffffffffffffffffffffffffffffffffff1673ffffffffffffffffffffffffffffffffffffffff1681526020019081526020016000205490506000811161042a576040517f08c379a0000000000000000000000000000000000000000000000000000000008152600401610421906109d8565b60405180910390fd5b60006002826104399190610a27565b90508047101561047e576040517f08c379a000000000000000000000000000000000000000000000000000000000815260040161047590610ab5565b60405180910390fd5b6000600460003373ffffffffffffffffffffffffffffffffffffffff1673ffffffffffffffffffffffffffffffffffffffff1681526020019081526020016000208190555081600360008282546104d59190610ad5565b925050819055503373ffffffffffffffffffffffffffffffffffffffff166108fc829081150290604051600060405180830381858888f19350505050158015610522573d6000803e3d6000fd5b505050565b60003490506000811161056f576040517f08c379a000000000000000000000000000000000000000000000000000000000815260040161056690610b7b565b60405180910390fd5b600060028261057e9190610bca565b9050600081116105c3576040517f08c379a00000000000000000000000000000000000000000000000000000000081526004016105ba90610c6d565b60405180910390fd5b80600460003373ffffffffffffffffffffffffffffffffffffffff1673ffffffffffffffffffffffffffffffffffffffff16815260200190815260200160002060008282546106129190610c8d565b92505081905550806003600082825461062b9190610c8d565b925050819055505050565b600081519050919050565b600082825260208201905092915050565b60005b83811015610670578082015181840152602081019050610655565b60008484015250505050565b6000601f19601f8301169050919050565b600061069882610636565b6106a28185610641565b93506106b2818560208601610652565b6106bb8161067c565b840191505092915050565b600060208201905081810360008301526106e0818461068d565b905092915050565b6000819050919050565b6106fb816106e8565b82525050565b600060208201905061071660008301846106f2565b92915050565b600080fd5b600073ffffffffffffffffffffffffffffffffffffffff82169050919050565b600061074c82610721565b9050919050565b61075c81610741565b811461076757600080fd5b50565b60008135905061077981610753565b92915050565b6000602082840312156107955761079461071c565b5b60006107a38482850161076a565b91505092915050565b600060ff82169050919050565b6107c2816107ac565b82525050565b60006020820190506107dd60008301846107b9565b92915050565b6000819050919050565b6107f6816107e3565b82525050565b600060208201905061081160008301846107ed565b92915050565b7f4e487b7100000000000000000000000000000000000000000000000000000000600052602260045260246000fd5b6000600282049050600182168061085e57607f821691505b60208210810361087157610870610817565b5b50919050565b600069ffffffffffffffffffff82169050919050565b61089681610877565b81146108a157600080fd5b50565b6000815190506108b38161088d565b92915050565b6108c2816107e3565b81146108cd57600080fd5b50565b6000815190506108df816108b9565b92915050565b6108ee816106e8565b81146108f957600080fd5b50565b60008151905061090b816108e5565b92915050565b600080600080600060a0868803121561092d5761092c61071c565b5b600061093b888289016108a4565b955050602061094c888289016108d0565b945050604061095d888289016108fc565b935050606061096e888289016108fc565b925050608061097f888289016108a4565b9150509295509295909350565b7f496e73756666696369656e74206e5553442062616c616e636500000000000000600082015250565b60006109c2601983610641565b91506109cd8261098c565b602082019050919050565b600060208201905081810360008301526109f1816109b5565b9050919050565b7f4e487b7100000000000000000000000000000000000000000000000000000000600052601160045260246000fd5b6000610a32826106e8565b9150610a3d836106e8565b9250828202610a4b816106e8565b91508282048414831517610a6257610a616109f8565b5b5092915050565b7f496e73756666696369656e74204554482062616c616e63650000000000000000600082015250565b6000610a9f601883610641565b9150610aaa82610a69565b602082019050919050565b60006020820190508181036000830152610ace81610a92565b9050919050565b6000610ae0826106e8565b9150610aeb836106e8565b9250828203905081811115610b0357610b026109f8565b5b92915050565b7f45544820616d6f756e74206d7573742062652067726561746572207468616e2060008201527f3000000000000000000000000000000000000000000000000000000000000000602082015250565b6000610b65602183610641565b9150610b7082610b09565b604082019050919050565b60006020820190508181036000830152610b9481610b58565b9050919050565b7f4e487b7100000000000000000000000000000000000000000000000000000000600052601260045260246000fd5b6000610bd5826106e8565b9150610be0836106e8565b925082610bf057610bef610b9b565b5b828204905092915050565b7f6e55534420616d6f756e74206d7573742062652067726561746572207468616e60008201527f2030000000000000000000000000000000000000000000000000000000000000602082015250565b6000610c57602283610641565b9150610c6282610bfb565b604082019050919050565b60006020820190508181036000830152610c8681610c4a565b9050919050565b6000610c98826106e8565b9150610ca3836106e8565b9250828201905080821115610cbb57610cba6109f8565b5b9291505056fea2646970667358221220de7bf9ba15aa3028228d057c7abfe53e1a73b6f4c8e71fba0c36aea87bd2da3864736f6c63430008120033",
  "immutableReferences": {},
  "source": "// SPDX-License-Identifier: MIT\r\npragma solidity ^0.8.0;\r\n\r\nimport \"@chainlink/contracts/src/v0.8/interfaces/AggregatorV3Interface.sol\";\r\n\r\ncontract nUSDStablecoin {\r\n    string public name = \"nUSD Stablecoin\";\r\n    string public symbol = \"nUSD\";\r\n    uint8 public decimals = 18;\r\n\r\n    uint256 public totalSupply;\r\n\r\n    mapping(address => uint256) public balances;\r\n\r\n    AggregatorV3Interface private priceFeed;\r\n\r\n    constructor(address _priceFeedAddress) {\r\n        priceFeed = AggregatorV3Interface(_priceFeedAddress);\r\n    }\r\n\r\n    function deposit() external payable {\r\n        uint256 ethAmount = msg.value;\r\n        require(ethAmount > 0, \"ETH amount must be greater than 0\");\r\n\r\n        uint256 nusdAmount = ethAmount / 2;\r\n        require(nusdAmount > 0, \"nUSD amount must be greater than 0\");\r\n\r\n        balances[msg.sender] += nusdAmount;\r\n        totalSupply += nusdAmount;\r\n    }\r\n\r\n    function redeem() external {\r\n        uint256 nusdAmount = balances[msg.sender];\r\n        require(nusdAmount > 0, \"Insufficient nUSD balance\");\r\n\r\n        uint256 ethAmount = nusdAmount * 2;\r\n        require(address(this).balance >= ethAmount, \"Insufficient ETH balance\");\r\n\r\n        balances[msg.sender] = 0;\r\n        totalSupply -= nusdAmount;\r\n\r\n        payable(msg.sender).transfer(ethAmount);\r\n    }\r\n\r\n    function getPrice() external view returns (int256) {\r\n        (, int256 price, , , ) = priceFeed.latestRoundData();\r\n        return price;\r\n    }\r\n}\r\n",
  "sourcePath": "D:\\Interview Prepration\\Unreal\\3\\contracts\\nUSD.sol",
  "compiler": {
    "name": "solc",
    "version": "0.8.18+commit.87f61d96.Emscripten.clang"
  },
  "schemaVersion": "3.4.14",
  "updatedAt": "2023-06-29T10:17:13.146Z",
  "networkType": "ethereum",
  "devdoc": {
    "kind": "dev",
    "methods": {},
    "version": 1
  },
  "userdoc": {
    "kind": "user",
    "methods": {},
    "version": 1
  }
}